:0300000002000EED
:0C000E00787FE4F6D8FD75810B020055E8
:0400030002080000EF
:10010C00758901758A33758CFED28CC28DD2A9D2B9
:02011C00AF2210
:0C011E007F0F7E027DEBDDFEDEFCDFFAD1
:01012A0022B2
:0C012B007F037E1A7DDFDDFEDEFCDFFAC4
:0101370022A5
:1000DD0012012B12010C750A00750B01E4F508F5E0
:1000ED0009D291750A00750B03E4F508F5091201A3
:0F00FD001EF50A750B01F508F50912011E80E4C6
:03000B0002009A56
:10009A00C0E0C0D075D000C0000509E509700205AE
:1000AA0008758A33758CFEC3E509950BE50A6480E9
:1000BA00F8E5086480985004D2918002C291E5095B
:1000CA00642845087006F508F509D291D000D0D009
:0300DA00D0E03241
:10001A000200DDE493A3F8E493A34003F68001F21F
:10002A0008DFF48029E493A3F85407240CC8C333E7
:10003A00C4540F4420C8834004F456800146F6DFB6
:10004A00E4800B0102040810204080900003E47E43
:10005A00019360BCA3FF543F30E509541FFEE493AB
:10006A00A360010ECF54C025E060A840B8E493A372
:10007A00FAE493A3F8E493A3C8C582C8CAC583CA9D
:10008A00F0A3C8C582C8CAC583CADFE9DEE780BE55
:0100070000F8
:00000001FF
