:0300000002000EED
:0C000E00787FE4F6D8FD758109020055EA
:0400030002080000EF
:1000BB00758901E4F58A758CDCD28CC28DD2A9D2FC
:0200CB00AF2262
:0C00DE007F037E1A7DDFDDFEDEFCDFFA12
:0100EA0022F3
:1000CD00D2B61200BBC2B71200DED2B71200DE806C
:0100DD00F42E
:03000B0002009A56
:10009A00C0E00509E50970020508758A00758CDC5F
:1000AA00E509646445087006F508F509B2B6D0E0BA
:0100BA003213
:10001A000200CDE493A3F8E493A34003F68001F22F
:10002A0008DFF48029E493A3F85407240CC8C333E7
:10003A00C4540F4420C8834004F456800146F6DFB6
:10004A00E4800B0102040810204080900003E47E43
:10005A00019360BCA3FF543F30E509541FFEE493AB
:10006A00A360010ECF54C025E060A840B8E493A372
:10007A00FAE493A3F8E493A3C8C582C8CAC583CA9D
:10008A00F0A3C8C582C8CAC583CADFE9DEE780BE55
:0100070000F8
:00000001FF
